:10000000AFC032C7C8C0C7C0ADC6C5C0C4C0C3C07A
:1000100092C605C7C0C0BFC0BEC0BDC0BCC0BBC0CB
:10002000BAC0B9C0B8C07FC57EC539C638C637C6E4
:1000300036C635C634C633C632C631C630C62FC6FC
:100040002EC62DC62CC6C0C3BFC4D2C4B4C5B3C54A
:1000500012C525C610C523C622C621C6C9C46E61F5
:100060006E00696E660000407A10F35A00A0724E6E
:1000700018090010A5D4E80000E87648170000E44D
:100080000B54020000CA9A3B000000E1F505000095
:1000900080969800000040420F000000A0860100FA
:1000A0000000102700000000E803000000006400CA
:1000B000000000000A000000000001000000000035
:1000C0002C76D888DC674F0823DFC1DFAE59E1B159
:1000D000B796E5E3E453C63AE651997696E8E6C268
:1000E0008426EB898C9B62ED407C6FFCEFBC9C9F6F
:1000F00040F2BAA56FA5F490055A2AF75C936B6C91
:10010000F9676DC11BFCE0E40D47FEF520E6B50084
:10011000D0ED902E0300943577050080841E0800F2
:1001200000204E0A000000C80C333333330F986EA2
:1001300012831141EF8D2114893BE65516CFFEE65F
:10014000DB18D1844B381BF77C1D901DA4BBE42425
:10015000203284725E228100C9F124ECA1E53D27A2
:1001600011241FBECFE5D4E0DEBFCDBF10E0A0E676
:10017000B0E0E8E1FEE102C005900D92AA3DB107B2
:10018000D9F720E0AAEDB0E001C01D92A53FB2076B
:10019000E1F7BAD23FCE34CF909130009178292F39
:1001A0002095809160009093600082230895A3E3DE
:1001B000B0E012969C911297926012969C931297BF
:1001C00084FB222720F9E6E3F0E0928120FB94F9FA
:1001D000928385FB222720F9928120FB93F9928359
:1001E00086FB222720F9928120FB92F99283282F07
:1001F000221F2227221F928120FB91F992831296BF
:100200009C9112979D7F12969C93129712969C91A7
:100210001297926012969C931297928180FB94F9A8
:10022000928381FB222720F9928120FB93F992830C
:1002300082FB222720F9928120FB92F9928383FB93
:10024000882780F9928180FB91F9928312968C9194
:1002500012978D7F12968C9385E88A95F1F70000AE
:100260000895CF93DF93D82FC62F60FD02C080681A
:1002700001C0806CC1FD8061909135009B7F90939F
:10028000350095DFC295CC0FC07EDF71CD2BC093BA
:10029000DA00DF91CF9108950F931F93CF93DF93EF
:1002A0008B01909135009B7F9093350028E0829FD1
:1002B000C001112480647BDF8091350084608093CD
:1002C0003500E801085F1F4F899171DFC017D10722
:1002D000D9F78091DA00682F6295669567708F7103
:1002E000DF91CF911F910F91BCCFE3E3F0E08281CA
:1002F0008B7F828381E05BDF8FE79CE00197F1F7E2
:1003000000C0000060E080E0ACCFE3E3F0E0828179
:100310008B7F828382E04BDF8FE79CE00197F1F7D0
:1003200000C0000088E243DF80E141DF86E03FDF7C
:100330008CE03DDFDACFCF93C82F8A3039F080913F
:1003400035008460809335008C2F31DF9091DA0086
:1003500081E0890F8F71803141F0CA3031F0907E99
:10036000892B8093DA00CF9108958091DA008295ED
:10037000869587708F5F8770823031F08295880F05
:10038000807E8093DA0002C01092DA006091DA0079
:1003900062956695677080E0CF9163CFCF93DF93CE
:1003A000EC018991882311F0C6DFFBCFDF91CF915B
:1003B00008958F929F92AF92BF92DF92EF92FF9239
:1003C0000F931F93CF93DF93CDB7DEB72D970FB663
:1003D000F894DEBF0FBECDBFD82EF62E2A873B87FE
:1003E0004C875D87822F932FA42FB52F57FF0AC00C
:1003F000B0588A879B87AC87BD878DE28983EE24BE
:10040000E39401C0E12C64E0CE010A96ACD58DE006
:100410008FD58AE08DD58A849B84AC84BD8420E00E
:1004200030E0A901C501B40116D610E0882389F196
:1004300020E030E040E85FE3C501B4010CD687FF5F
:100440000DC01430F9F020E030E04AE754E4C50173
:10045000B4011FD74B015C011F5FEACF8A869B86E0
:10046000AC86BD86123051F018F4113089F004C00A
:10047000133031F0143051F010E00BC011E009C01E
:100480001EE607C08A869B86AC86BD8610E701C043
:100490001DE6BA84AB849C848D8420E030E0A90101
:1004A000D501F4016B2F7A2F8F2F9E2FD4D588235F
:1004B000E9F020E030E040E251E4D501F4016B2F97
:1004C0007A2F8F2F9E2FC7D587FD13C020E030E0F5
:1004D00048EC52E4D501F4016B2F7A2F8F2F9E2F19
:1004E000BAD587FD09C085E790E008C083E690E0B3
:1004F00005C089E690E002C08FE690E08F929F925F
:10050000AF92BF929F938F9381E090E08C0F9D1FDD
:100510008E0D911D9F938F9300DC8E0D0FB6F89476
:10052000DEBF0FBECDBF112341F0E1E0F0E0EC0FE4
:10053000FD1FE80FF11D10838F5F21E0280FE1E020
:10054000F0E0EC0FFD1FE80FF11D008330E2822F79
:1005500090E0E1E0F0E0EC0FFD1FE80FF91F28301C
:1005600018F430832F5FF3CF10826F2D8D2D79DE3D
:10057000CE01019613DF2D960FB6F894DEBF0FBEA5
:10058000CDBFDF91CF911F910F91FF90EF90DF9042
:10059000BF90AF909F908F9008950F931F93CF932C
:1005A000DF93CDB7DEB729970FB6F894DEBF0FBE45
:1005B000CDBF9F938F937F936F938BE790E09F9333
:1005C0008F938E010F5F1F4F1F930F93A6DBF801D0
:1005D000E80FF91F0FB6F894DEBF0FBECDBF20E2C3
:1005E000CF01801B910B089714F42193F9CF198642
:1005F00060E088E036DEC801D1DE29960FB6F894B7
:10060000DEBF0FBECDBFDF91CF911F910F91089537
:10061000CF93DF93F894AEE4B0E08C91887F8C9315
:10062000E5E4F0E08081887F80831092EA001092F8
:10063000EB001092EC001092ED001092F40010927A
:10064000EF001092EE001092E90010924D0010920F
:100650004C0083E880934400C8E5D0E08881846042
:100660008883888180648883C9E5D0E0888184603C
:1006700088838881806488838C91887F86608C934E
:100680008081887F846080837894DF91CF91089502
:100690002FE738E341E0215030404040E1F700C00F
:1006A000000020E23EE4FC0131832083F8941092A4
:1006B000F0001092F1001092F2001092F3001092EC
:1006C000F40010925200EAE5F0E0808180648083BB
:1006D000E8E5F0E0808181608083EBE5F0E08081F7
:1006E00080648083E9E5F0E0808181608083E2E3DB
:1006F000F0E080818F7B8083E3E5F0E08081887F7C
:100700008260808378940895CF93DF93CDB7DEB76E
:1007100060970FB6F894DEBF0FBECDBF81EE809319
:1007200038008FE18093370089E38093350086E0BD
:100730008093340087EC8093320088E58093310009
:1007400080914E00877E80934E0080914F008C7F79
:1007500080934F0080914500877F80934500809172
:1007600045008F7B80934500809155008C7F82608F
:1007700080935500CADD62ED70E081E08DDD46E0DA
:1007800060E875E280E090E096D381E890E006DED4
:1007900003DD8111FDCF33E4732E10E2CE0101960B
:1007A0005C014DE2642E5FEA852E50E0952E0091AB
:1007B0006200802F90E0FC01F197EC31F10508F028
:1007C0006EC2ED5EFF4F0994809132008F7E809360
:1007D000320080913200877F809332009FEF22E5C4
:1007E00087E0915020408040E1F700C0000010DF1A
:1007F0007CDD8EE990E0D2DDEE24E394F12C212C17
:10080000312C21018E2DDD24DA94DE0C91E1E916E4
:10081000F10409F462C09091F4009923B9F3F894BB
:100820004091EA005091EB006091EC007091ED0076
:10083000240E351E461E571E7894883009F5809187
:1008400032008860809332009FE728E381E0915076
:1008500020408040E1F700C00000C201B10167D430
:1008600020E030E040E05EE314D56093E500709353
:10087000E6008093E7009093E800212C312C2101C1
:10088000C7DEB7010F2C000C880B990B52D420E067
:1008900030E048EC52E4FDD420E030E040E85DE395
:1008A000F8D49F938F937F936F939F928F92BF9271
:1008B000AF9233DA60E08CE0D4DCC5016FDD61E03B
:1008C0008D2DCFDC8FEF37DD9FEFE91AF90A0FB6D8
:1008D000F894DEBF0FBECDBF95CF80913200877FE9
:1008E000809332002FE788E391E0215080409040D0
:1008F000E1F700C000008CDEC090E500D090E6007B
:10090000E090E700F090E800C201B10110D420E0CF
:1009100030E040E05EE3BDD49B01AC01C701B6010D
:100920009ED39B01AC01B5D420E030E040E85FE30A
:100930002DD31B012C019B01AC016FE274EA84EF03
:1009400090E38DD36093E1007093E2008093E30025
:100950009093E4002BED3FE049EC50E4C701B60171
:1009600098D49B01AC0195D42FE234EA44EF50E3D4
:1009700090D49B01AC01C201B10171D36093DD0041
:100980007093DE008093DF009093E000AEDC87EB95
:1009900090E004DD2091E1003091E2004091E3001D
:1009A0005091E40006E461E080E003DD2091DD0089
:1009B0003091DE004091DF005091E00008E461E0FA
:1009C00088E0F7DC82E4F4C08091F400882309F425
:1009D00066C1F894C090EA00D090EB00E090EC0083
:1009E000F090ED00789414DEC701B601D6DD57C152
:1009F00091E00C3409F090E08091320090FB84F992
:100A00008093320080913200877F809332002FE7FD
:100A100088E391E0215080409040E1F700C0000061
:100A2000F7DD2BE529836A82809162008B836C82DB
:100A30009DE59D831E8396E49F832AE0288719877E
:100A40001A878B8788E78C871D878DE38E871F87A2
:100A5000188A60E080E005DCC501A0DC80916200BE
:100A6000833411F008E401C006E40093620020E042
:100A700030E0A90154C08091F400882309F40FC12B
:100A8000F8942090EA003090EB004090EC005090F9
:100A9000ED007894BDDDC201B10149D39B01AC01E9
:100AA0006091E5007091E6008091E7009091E80088
:100AB000D6D29B01AC01EDD320E030E040E85FE30B
:100AC00065D26B017C01063449F42091E10030913C
:100AD000E2004091E3005091E40011C00834C1F4F9
:100AE00088EE281683E038064104510470F0209106
:100AF000DD003091DE004091DF005091E000C70141
:100B0000B601C7D36B017C0103C0C12CD12C760187
:100B1000C201B10142DD00916200A701960161E0CE
:100B200087E047DCBCC0809132008F7E809332002A
:100B300091E0023309F090E08091320090FB83F95C
:100B400080933200809132008064809332008BED7C
:100B500090E09EDD9BE599837A8225E42B8380914A
:100B600062008C838DE58D831E8394E59F832AE04C
:100B7000288719877A8685E48B871C8660E080E069
:100B800070DBC5010BDC03E720E030E0A90160E089
:100B900088E00FDC06E420E030E0A90161E087E0B6
:100BA00008DC80916200813311F085E401C084E4A7
:100BB0008093620074C08091F400811107C080911D
:100BC000DB009091DC00892B09F05CC0F8948091E7
:100BD0005300887F80935300C090F000D090F100C4
:100BE000E090F200F090F30080915200FE2CED2C8A
:100BF000DC2CCC24C82A7894C701B60198D22DEBFE
:100C000037E346E855E345D31B012C0103E79B017D
:100C1000AC0160E088E0CDDB8091F400882319F11D
:100C20009AE0C916D104E104F104B8F080916200A1
:100C3000843429F026E636E648E453E404C020E094
:100C400030EB49EF54E4C201B10109D29B01AC0180
:100C500006E461E087E0ADDB11C061E087E001DB25
:100C600080EC90E00AC08091320080648093320072
:100C700061E087E0F6DA89EC90E090DB8BED90E0C4
:100C800007DD0DC02EEE2A95F1F700C08091DB0044
:100C90009091DC0001979093DC008093DB007CDA7C
:100CA000882309F484CD9091620087FF34C0953485
:100CB000F1F030F4923461F0943459F582E338C0A5
:100CC000983449F0903599F1963419F58CE430C098
:100CD000809161002DC0809159008B7F80935900D5
:100CE000809159008F7B8093590081E321C08091CE
:100CF0005B008F7B80935B00809159008E7F809397
:100D000059008091320080648093320070926200BA
:100D10004ECD80E50DC080FF4ACD963429F0983441
:100D200009F045CD8CE401C083E48093610081E447
:100D3000809362003CCD1F920F920FB60F92112448
:100D40008F939F938091EE009091EF000196909386
:100D5000EF008093EE009F918F910F900FBE0F9048
:100D60001F9018951F920F920FB60F9211244F9358
:100D70005F936F937F938F939F93AF93BF9383E81A
:100D8000809344008091E9008F5F8093E9008A3F5F
:100D9000C9F580914E00887F80934E008091450078
:100DA000887F80934500809159008B7F8093590004
:100DB000809159008F7B809359008091EE00909133
:100DC000EF0040914C0050914D00A0E0B0E0DC01FC
:100DD0009927882760E070E0842B952BA62BB72BF2
:100DE00072E0880F991FAA1FBB1F7A95D1F78093D5
:100DF000EA009093EB00A093EC00B093ED0081E04B
:100E00008093F400BF91AF919F918F917F916F91EB
:100E10005F914F910F900FBE0F901F9018951F92EA
:100E20000F920FB60F9211248F939F93AF93BF939E
:100E30008091F0009091F100A091F200B091F30048
:100E40000196A11DB11D8093F0009093F100A09335
:100E5000F200B093F300BF91AF919F918F910F90EB
:100E60000FBE0F901F9018951F920F920FB60F9202
:100E700011248F93EF93FF93E3E5F0E08081887F67
:100E80008083E2E3F0E0808180648083E9E5F0E044
:100E900080818E7F8083EBE5F0E080818F7B808393
:100EA00081E08093F400FF91EF918F910F900FBE3E
:100EB0000F901F901895CF92DF92EF92FF921F93A1
:100EC000CF93DF9300D0CDB7DEB76B017C01142F39
:100ED00060E271EA87E090E0A70196019BD521507E
:100EE00031093A8329838A81982F9F70809140002D
:100EF000807F892B80934000898180932900809195
:100F0000400084608093400010934000EAE2F0E0EB
:100F10008081886080838081806180830F900F90C2
:100F2000DF91CF911F91FF90EF90DF90CF900895C8
:100F300090912B0095FFFCCF80932C000895CF93C8
:100F4000C82F82958F708A3010F097E301C090E32C
:100F5000890FEEDFCF70CA3010F480E301C087E361
:100F60008C0FCF91E5CF0F931F93CF938C01060F7A
:100F7000111DC62FCC2331F0F80182918F01DFDFE4
:100F8000C150F8CFCF911F910F9108955058BB27B2
:100F9000AA270ED044C135D130F03AD120F031F437
:100FA0009F3F11F41EF42AC10EF4E095E7FB20C127
:100FB000E92F46D180F3BA176207730784079507B4
:100FC00018F071F49EF55EC10EF4E0950B2EBA2F69
:100FD000A02D0B01B90190010C01CA01A00111243F
:100FE000FF27591B99F0593F50F4503E68F11A16EB
:100FF000F040A22F232F342F4427585FF3CF46957C
:1010000037952795A795F0405395C9F77EF41F169D
:10101000BA0B620B730B840BBAF09150A1F0FF0F67
:10102000BB1F661F771F881FC2F70EC0BA0F621F53
:10103000731F841F48F4879577956795B795F79543
:101040009E3F08F0B3CF9395880F08F09927EE0FD5
:10105000979587950895A8D008F481E008950CD05D
:10106000DEC0D6D040F0CDD030F021F45F3F19F093
:10107000BFC0511108C1C2C0E3D098F39923C9F38E
:101080005523B1F3951B550BBB27AA27621773078E
:10109000840738F09F5F5F4F220F331F441FAA1F42
:1010A000A9F333D00E2E3AF0E0E830D09150504002
:1010B000E695001CCAF729D0FE2F27D0660F771FB0
:1010C000881FBB1F261737074807AB07B0E809F092
:1010D000BB0B802DBF01FF2793585F4F2AF09E3F27
:1010E000510568F085C0CFC05F3FECF3983EDCF35C
:1010F000869577956795B795F7959F5FC9F7880FA0
:10110000911D9695879597F90895E1E0660F771FF1
:10111000881FBB1F621773078407BA0720F0621B82
:10112000730B840BBA0BEE1F88F7E0950895E894D3
:1011300009C097FB3EF490958095709561957F4F1F
:101140008F4F9F4F9923A9F0F92F96E9BB279395CD
:10115000F695879577956795B795F111F8CFFAF4DD
:10116000BB0F11F460FF1BC06F5F7F4F8F4F9F4F0E
:1011700016C0882311F096E911C0772321F09EE86C
:10118000872F762F05C0662371F096E8862F70E0D2
:1011900060E02AF09A95660F771F881FDAF7880FAC
:1011A0009695879597F90895990F0008550FAA0B02
:1011B000E0E8FEEF16161706E807F907C0F012166A
:1011C0001306E407F50798F0621B730B840B950B6D
:1011D00039F40A2661F0232B242B252B21F40895C2
:1011E0000A2609F4A140A6958FEF811D811D08955F
:1011F00097F99F6780E870E060E008959FEF80ECCA
:10120000089500240A94161617061806090608956C
:1012100000240A9412161306140605060895092ED2
:101220000394000C11F4882352F0BB0F40F4BF2B41
:1012300011F460FF04C06F5F7F4F8F4F9F4F089581
:1012400057FD9058440F551F59F05F3F71F0479577
:10125000880F97FB991F61F09F3F79F0879508955C
:10126000121613061406551FF2CF4695F1DF08C07B
:10127000161617061806991FF1CF86957105610598
:1012800008940895E894BB2766277727CB0197F940
:1012900008950BD0C4CFB5DF28F0BADF18F095233E
:1012A00009F0A6CFABCF1124EECFCADFA0F3959FF4
:1012B000D1F3950F50E0551F629FF001729FBB273D
:1012C000F00DB11D639FAA27F00DB11DAA1F649FE9
:1012D0006627B00DA11D661F829F2227B00DA11D9C
:1012E000621F739FB00DA11D621F839FA00D611D22
:1012F000221F749F3327A00D611D231F849F600D43
:10130000211D822F762F6A2F11249F5750408AF07B
:10131000E1F088234AF0EE0FFF1FBB1F661F771F07
:10132000881F91505040A9F79E3F510570F060CF43
:10133000AACF5F3FECF3983EDCF3869577956795EF
:10134000B795F795E7959F5FC1F7FE2B880F911D25
:101350009695879597F90895A0E1B0E0E1EBF9E063
:101360007BC37C011B016A01FC0117821682838109
:1013700081FF2AC39E012F5F3F4F3901F7019381FF
:10138000F10193FD859193FF81911F01882309F459
:1013900017C3853239F493FD859193FF81911F0125
:1013A000853231F4B70190E07CD456016501E6CF77
:1013B00010E0512C912CFFE1F915D8F08B3279F027
:1013C00038F4803279F08332A1F4F92DF0612EC027
:1013D0008D3261F0803369F4292D21602DC0392DC3
:1013E0003260932E892D8460982E2AC0E92DE86002
:1013F00015C097FC2DC020ED280F2A3088F496FEEA
:1014000006C03AE0139F200D1124122F19C08AE064
:10141000589E200D1124522EE92DE0629E2E10C000
:101420008E3231F496FCCCC2F92DF0649F2E08C0A8
:101430008C3621F4292D2068922E02C0883641F482
:10144000F10193FD859193FF81911F018111B3CF2C
:101450009BEB980F933020F4992D9061805E07C02C
:101460009BE9980F933008F059C1992D9F7E96FF04
:1014700016E09F73992E853619F49064992E08C052
:10148000863621F4392F3068932E02C01111115085
:1014900097FE07C01C3350F444244394410E27E0C8
:1014A0000BC0183038F027E017E005C027E09CE3B8
:1014B000492E02C0212F412C560184E0A80EB11CF8
:1014C000F6016081718182819381042DA301FBD299
:1014D0006C01F981FC87F0FF02C0F3FF06C091FCAC
:1014E00006C092FE06C000E205C00DE203C00BE29A
:1014F00001C000E08C858C7019F0011143C280C2DC
:1015000097FE10C04C0CFC85F4FF04C08A81813327
:1015100009F44A94141474F528E0241578F588E049
:10152000482E2CC096FC2AC0812F90E08C159D057A
:101530009CF03CEFC3163FEFD30674F0892D806812
:10154000982E0AC0E2E0F0E0EC0FFD1FE10FF11D64
:101550008081803319F411501111F4CF97FE0EC021
:1015600044244394410E812F90E0C816D9062CF4F0
:101570001C1904C04424439401C010E097FE06C027
:101580001C141D0434F4C601019605C085E090E0EA
:1015900002C081E090E001110196112331F0212F6A
:1015A00030E02F5F3F4F820F931F252D30E08217D1
:1015B000930714F4581A01C0512C892D897041F4F5
:1015C000552031F0B70180E290E06BD35A94F8CF08
:1015D000002321F0B701802F90E063D393FC08C073
:1015E000552031F0B70180E390E05BD35A94F8CFF7
:1015F00097FE4AC04601D7FE02C0812C912CC6013D
:1016000088199909F301E80FF91FFE87ED87960104
:1016100024193109388B2F87012F10E0119501957E
:1016200011093FEF8316930621F4B7018EE290E093
:1016300038D3C814D9044CF08F859889881599053A
:1016400024F4ED85FE85818101C080E3F1E08F1AED
:1016500091082D853E852F5F3F4F3E872D87801651
:10166000910624F0B70190E01CD3DBCFC814D90455
:1016700041F49A81963320F4953319F43C8534FF74
:1016800081E3B70190E048C08A81813319F09C85DD
:101690009F7E9C87B70190E004D3111105C094FC94
:1016A00016C085E690E015C0B7018EE290E0F9D251
:1016B0001E5F82E001E0080FF301E80FF11D808159
:1016C000B70190E0EED2802F0113F4CFE8CF85E48C
:1016D00090E0B701E6D2D7FC06C0C114D10441F4B2
:1016E000EC85E4FF05C0D194C194D1088DE201C01E
:1016F0008BE2B70190E0D5D280E32AE0C216D10494
:101700002CF08F5FFAE0CF1AD108F7CFB70190E045
:10171000C8D2B701C601C096C4D249C1833631F0E0
:10172000833779F0833509F052C01FC0560132E08B
:10173000A30EB11CF6018081898301E010E06301F2
:1017400011C05601F2E0AF0EB11CF601C080D1808D
:1017500096FE03C0612F70E002C06FEF7FEFC601FD
:1017600095D28C01F92DFF7713C0560122E0A20E0D
:10177000B11CF601C080D18096FE03C0612F70E0DD
:1017800002C06FEF7FEFC60176D28C01F92DF068B1
:101790009F2EF3FD18C0852D90E00817190798F4C7
:1017A000B70180E290E07DD25A94F5CFF60197FC24
:1017B000859197FE81916F01B70190E072D251102F
:1017C0005A94015011090115110581F7F0C08436B2
:1017D00011F0893659F5560197FE09C024E0A20E92
:1017E000B11CF60160817181828193810AC0F2E0AF
:1017F000AF0EB11CF60160817181072E000C880BC1
:10180000990BF92DFF769F2E97FF09C09095809533
:10181000709561957F4F8F4F9F4FF0689F2E2AE004
:1018200030E0A30199D2C82EC6183EC0092D8537D5
:1018300021F40F7E2AE030E01DC0097F8F3691F041
:1018400018F4883559F0BCC0803719F0883711F08A
:10185000B7C0006104FF09C0046007C094FE08C05F
:10186000066006C028E030E005C020E130E002C09C
:1018700020E132E0560107FF09C084E0A80EB11C48
:10188000F601608171818281938108C0F2E0AF0E20
:10189000B11CF6016081718180E090E0A3015CD20F
:1018A000C82EC6180F77902E96FE0BC0092D0E7FFE
:1018B000C11650F494FE0AC092FC08C0092D0E7E99
:1018C00005C0DC2C092D03C0DC2C01C0D12E04FF87
:1018D0000DC0FE01EC0DF11D8081803311F4097EF5
:1018E00009C002FF06C0D394D39404C0802F867829
:1018F00009F0D39403FD10C000FF06C01C2DD514C1
:1019000078F4150D1D190CC0D51450F4B70180E200
:1019100090E0C7D1D394F8CFD51410F45D1801C06E
:10192000512C04FF0FC0B70180E390E0BAD102FF51
:1019300016C001FD03C088E790E002C088E590E092
:10194000B7010CC0802F867851F001FF02C08BE2F6
:1019500001C080E207FD8DE2B70190E0A2D1C1167F
:1019600030F4B70180E390E09CD11150F8CFCA94D5
:10197000F301EC0DF11D8081B70190E092D1C1100F
:10198000F6CF15C0F4E0F51550F584E0581A93FE33
:101990001EC0011125C02C8523FF27C00EE510E0D5
:1019A000392D3071932EF8018491811121C0552079
:1019B00009F4FCCCB70180E290E073D15A94F7CFE0
:1019C000F7018681978123C08FEF9FEF20C0B70179
:1019D00080E290E066D15A945110F9CFDACF512CC1
:1019E000B701802F90E05DD1D6CF02E610E0D8CFCE
:1019F00091108052B70190E054D10F5F1F4FD3CFA9
:101A000023E0251510F483E0C1CF512CC4CF60969C
:101A1000E2E13EC0A1E21A2EAA1BBB1BFD010DC0D4
:101A2000AA1FBB1FEE1FFF1FA217B307E407F5078E
:101A300020F0A21BB30BE40BF50B661F771F881F6A
:101A4000991F1A9469F760957095809590959B0100
:101A5000AC01BD01CF0108952F923F924F925F924A
:101A60006F927F928F929F92AF92BF92CF92DF92AE
:101A7000EF92FF920F931F93CF93DF93CDB7DEB713
:101A8000CA1BDB0B0FB6F894DEBF0FBECDBF0994A7
:101A90002A88398848885F846E847D848C849B84FE
:101AA000AA84B984C884DF80EE80FD800C811B810C
:101AB000AA81B981CE0FD11D0FB6F894DEBF0FBE3B
:101AC000CDBFED010895283008F027E03327DA0173
:101AD000990F311D87FD916000966105710539F4FC
:101AE00032602E5F3D9330E32A95E1F708959F3FE2
:101AF00030F080387105610509F03C5F3C5F3D9333
:101B0000913008F08068911DDF93CF931F930F935E
:101B1000FF92EF92192F987F9695E92F96959695BB
:101B2000E90FFF27E054FF4F99273327EE24FF24C6
:101B3000A701E70105900894079428F4360FE71EE3
:101B4000F81E491F511D660F771F881F991F0694A5
:101B5000A1F70590079428F4E70EF81E491F561FB9
:101B6000C11D770F881F991F661F0694A1F7059066
:101B7000079428F4F80E491F561FC71FD11D880F60
:101B8000991F661F771F0694A1F70590079420F40C
:101B9000490F561FC71FD81F990F661F771F881F31
:101BA0000694A9F784911095177041F0D695C795C2
:101BB00057954795F794E7941A95C1F7E6E6F0E054
:101BC00068941590159135916591959105907FE2F6
:101BD0007395E118F10A430B560BC90BD009C0F7F6
:101BE000E10CF11E431F561FC91FD01D7EF4703338
:101BF00011F48A95E6CFE894015030F0080F0AF40A
:101C00000027021708F4202F2395022F7A3328F09B
:101C100079E37D932A95E9F710C07D932A9589F69B
:101C2000069497956795379517951794E118F10ADB
:101C3000430B560BC90BD00998F023957E917395F1
:101C40007A3308F070E37C932013B8F77E917061CB
:101C50007D9330F0839571E37D9370E32A95E1F7EE
:101C60001124EF90FF900F911F91CF91DF91992751
:101C700087FD90950895FC0105906150704001101A
:101C8000D8F7809590958E0F9F1F0895FC016150A5
:101C9000704001900110D8F7809590958E0F9F1F8E
:101CA00008950F931F93CF93DF93FB01238121FDB1
:101CB00003C08FEF9FEF2CC022FF16C046815781D3
:101CC000248135814217530744F4A081B1819D01DD
:101CD0002F5F3F4F318320838C93268137812F5F85
:101CE0003F4F3783268314C08B01EC01FB01008436
:101CF000F185E02D0995892BE1F6D80116968D9195
:101D00009C911797019617969C938E931697CE01E8
:101D1000DF91CF911F910F910895AEE0B0E0E2E91D
:101D2000FEE0A8CE0D891E8986E08C831A83098384
:101D30008FEF9FE79E838D83AE01475E5F4F6F8974
:101D4000788DCE01019608DBEF81F885E00FF11F59
:101D500010822E96E4E0AACEFA01AA27283051F18B
:101D6000203181F1E8946F936E7F6E5F7F4F8F4FCC
:101D70009F4FAF4FB1E03ED0B4E03CD0670F781F2B
:101D8000891F9A1FA11D680F791F8A1F911DA11D10
:101D90006A0F711D811D911DA11D20D009F4689449
:101DA0003F912AE0269F11243019305D3193DEF6F1
:101DB000CF010895462F4770405D4193B3E00FD0A7
:101DC000C9F7F6CF462F4F70405D4A3318F0495D92
:101DD00031FD4052419302D0A9F7EACFB4E0A69575
:101DE0009795879577956795BA95C9F70097610597
:101DF000710508959B01AC010A2E069457954795ED
:101E000037952795BA95C9F7620F731F841F951FE1
:081E1000A01D0895F894FFCF16
:101E180081435025312E31660025312E3366002549
:101E2800322E32660025332E316600256C75487ACD
:101E38000020204C2D432D4345204D657465720AC2
:101E4800202020323032312D30372D32330043619B
:101E58006C6962726174696F6E20202030250025DC
:101E6800332E30662525005B43616C5D20463D00BE
:101E7800554C202020202020004F4C2020202020BE
:0A1E8800200000001111131D1010BE
:00000001FF
